S3150800000010880020E9020008CF05000865050008E9
S31508000010C9050008EF030008710800080000000081
S31508000020000000000000000000000000290200088F
S31508000030F3030008000000008502000825070008F1
S31508000040030300080303000803030008030300086A
S31508000050030300080303000803030008030300085A
S31508000060030300080303000803030008030300084A
S31508000070030300080303000803030008030300083A
S31508000080030300080303000803030008030300082A
S31508000090030300080303000803030008030300081A
S315080000A0030300080303000803030008030300080A
S315080000B003030008030300080303000803030008FA
S315080000C003030008030300080303000803030008EA
S315080000D003030008030300080303000803030008DA
S315080000E003030008030300080303000803030008CA
S315080000F003030008030300080303000803030008BA
S3150800010003030008030300080303000803030008A9
S315080001100303000803030008030300080303000899
S315080001200303000803030008030300080303000889
S315080001300303000803030008030300080303000879
S315080001400303000803030008030300080303000869
S315080001500303000803030008030300080303000859
S315080001600303000803030008030300080303000849
S315080001700303000803030008030300080303000839
S31508000180030300080303000800F002F800F03CF837
S315080001900AA090E8000C82448344AAF10107DA45D4
S315080001A001D100F031F8AFF2090EBAE80F0013F0EA
S315080001B0010F18BFFB1A43F001031847B8130000D4
S315080001C0D8130000103A24BF78C878C1FAD8520765
S315080001D024BF30C830C144BF04680C6070470000B3
S315080001E00023002400250026103A28BF78C1FBD832
S315080001F0520728BF30C148BF0B6070471FB501F0D2
S31508000200B3F91FBD10B510BD00F0BCF81146FFF7D5
S31508000210F5FF00F02FFB00F0DAF803B4FFF7F2FF62
S3150800022003BC00F0DDF800002C4B19680868B0E83C
S31508000230F04F80F30988BFF36F8F4FF0000080F30B
S31508000240118870470000000008480068006880F3BD
S3150800025008884FF0000080F3148862B661B6BFF3D1
S315080002604F8FBFF36F8F00DF00BF00BF08ED00E0C0
S31508000270DFF80C00016841F470010160704700BFA7
S3150800028088ED00E0EFF30980BFF36F8F134B1A6810
S315080002901EF0100F08BF20ED108A20E9F04F1060FD
S315080002A009B44FF0500080F31188BFF34F8FBFF3A6
S315080002B06F8F00F019FF4FF0000080F3118809BC1A
S315080002C019680868B0E8F04F1EF0100F08BFB0ECC8
S315080002D0108A80F30988BFF36F8F704720000020CB
S315080002E0EFF3058070470000094880470948004732
S315080002F0FEE7FEE7FEE7FEE7FEE7FEE7FEE7FEE7C8
S31508000300FEE7FEE704480549054A064B7047000024
S31508000310590700088901000810820020108800206B
S3150800032010840020108400204FF0000200B5134608
S3150800033094469646203922BFA0E80C50A0E80C50F7
S31508000340B1F12001BFF4F7AF090728BFA0E80C50A8
S3150800035048BF0CC05DF804EB890028BF40F8042BA1
S3150800036008BF704748BF20F8022B11F0804F18BF0E
S3150800037000F8012B70477047704770470048704770
S31508000380B08100207546FFF7F9FFAE4605006946BD
S31508000390534620F00700854618B020B5FFF7B2FF90
S315080003A0BDE820404FF000064FF000074FF0000868
S315080003B04FF0000B21F00701AC46ACE8C009ACE8E9
S315080003C0C009ACE8C009ACE8C0098D46704710B54D
S315080003D00446AFF300802046BDE81040FFF71DBF76
S315080003E001491820ABBEFEE726000200704700BF91
S315080003F0FEE770477047000000B97047B7EE000A7D
S3150800040080ED000AB7EE000A80ED010AB7EE000A91
S3150800041080ED020ABBEE040A80ED030AB9EE040A6F
S3150800042080ED040AB1EE040A80ED050AB3EE040A6B
S3150800043080ED060A9FED120A80ED070ABAEE040A55
S3150800044080ED080AB2EE040A80ED090A9FED0D0A4E
S3150800045080ED0A0A9FED0C0A80ED0B0A9FED080A4B
S3150800046080ED0C0A9FED090A80ED0D0A9FED050A3D
S3150800047080ED0E0A9FED060A80ED0F0A00BFBCE765
S31508000480000048C2000048420000C8C20000000040
S315080004900000C8421CB50121082000F0BDF84FF441
S315080004A07040009001208DF8040000208DF80600A9
S315080004B003208DF8050000208DF8070069460248DC
S315080004C000F004F81CBD0000000C0240F0B50A4616
S315080004D000210023002400BF3DE0012505FA01F3B1
S315080004E0156805EA03049C4234D105684F000326C3
S315080004F0BE40B543056015794E00B54006683543DC
S3150800050005601579012D02D01579022D16D1856859
S315080005104F000326BE40B543856055794E00B54069
S31508000520866835438560456801268E40B543456033
S31508000530456896798E40B6B235434560C5684F0022
S315080005400326BE40B543C560D5794E00B540C6689A
S315080005503543C560491C1029BFD3F0BD42694A40DE
S315080005604261704700BFFEE7704700009FED120A20
S3150800057080ED000A9FED110A80ED010A9FED100A31
S3150800058080ED020A9FED0F0A80ED030A9FED0D0A22
S3150800059080ED040A9FED0B0A80ED060A9FED090A15
S315080005A080ED070A9FED070A80ED080A9FED050A08
S315080005B080ED090A704700006F12833AA69B443BF8
S315080005C08FC2F53C0000000000BFFEE77047704789
S315080005D002490143024A1160704700000000FA050B
S315080005E00CED00E080ED000AC0ED010A80ED021A6C
S315080005F0DFED082AC0ED032ADFED062AC0ED042A3E
S31508000600DFED042AC0ED052AC0ED061A80ED072A9B
S31508000610704700000000000029B1064A126802432C
S31508000620044B1A6004E0034A12688243014B1A60BD
S3150800063070470000303802400CB500200190009049
S315080006403448006840F480303249086000BF3148B9
S31508000650006800F4003000900198401C0190009852
S3150800066018B90198B0F5A04FF1D12A48006800F4EE
S31508000670003010B10120009001E0002000900098A1
S31508000680012846D123484030006840F0805021496F
S31508000690403108602048006840F440401E49086020
S315080006A01C48083000681B4908310860084600687D
S315080006B040F4004008600846006840F4A05008600E
S315080006C01648091F0860081F006840F08070091F57
S315080006D0086000BF0F48006800F000700028F9D0D5
S315080006E040F205700E4908600A480830006820F094
S315080006F003000849083108600846006840F002000F
S31508000700086000BF03480830006800F00C0008289D
S31508000710F8D10CBD0038024000700040085440076C
S31508000720003C024010B500BF502080F31188BFF38B
S315080007304F8FBFF36F8F00BF00F08AFD18B14FF0DF
S3150800074080500449086000BF002080F3118800BF6C
S3150800075010BD000004ED00E010B51548006840F42F
S315080007607000134908601348006840F001001149F9
S31508000770086000200F49083108600E4800680E49D5
S3150800078008400C4908600D48091D0860081F0068E4
S3150800079020F48020091F0860002006490C310860F3
S315080007A0FFF74AFF4FF0006001498039086010BD25
S315080007B088ED00E000380240FFFFF6FE1030002406
S315080007C01CB51848FFF7D2FEB2EE042AFAEE041A50
S315080007D09FED151ADFED150A9FED150A1548FFF767
S315080007E001FF0020032103464FF48072CDE9001073
S315080007F011A1144800F0D0FC002002210346CA01CA
S31508000800CDE9001010A1144800F0C6FC0020042110
S3150800081003468A01CDE9001010A1144800F0BCFC7B
S315080008201CBD000068810020000000000AD7A33B19
S31508000830CDCC4C3D908100205461736B5F494D557A
S3150800084000000000611000085461736B5F456E6319
S315080008506F64657200000000351000085461736B00
S315080008605F436F6E74726F6C000000000910000819
S3150800087000BFFEE74FF44070FFF7AAFEFFF70AFE37
S31508000880FFF7A4FEFFF770FEFFF7B4FD0448FFF775
S31508000890B3FDFFF795FF00F0F9FB00BFFEE7000088
S315080008A0288100202DE9F04705460E4629480768A5
S315080008B02948D0F800802948D0F8009028480068D0
S315080008C0001D00F00FFB50B92548006890F82C1061
S315080008D00120884023490968814322480160681C31
S315080008E0E0B9DEB100BF204948681D49096888603B
S315080008F01B4982680968CA6019490968091D82681E
S31508000900516017490968091D8160174A1449096821
S315080009104A6111460968491C116018E07C1910489B
S3150800092000684460BC4206D20D480168091D484665
S3150800093000F0FCFA0BE00A480168091D404600F081
S31508000940F5FA0A480068844201D208480460BDE8FE
S31508000950F087000034000020240000202800002032
S3150800096020000020380000201481002050000020BC
S3150800097010B5044600F0F4FA32480068401C3149C4
S3150800098008603148006840B92F4804600846006886
S3150800099001280DD100F082F90AE02C48006838B920
S315080009A029480068C06AE16A884201D82648046076
S315080009B027480068401C2649086000BF94F82C1098
S315080009C0012088402349096808432249086000BF76
S315080009D0E16A01EB8101204A02EB81014868A060C7
S315080009E08268E260211D826851608160E16A01EBDC
S315080009F08101194A02EB81026261E16A01EB810118
S31508000A00154A52F82110491CE26A02EB8202124B7F
S31508000A1043F8221000BF00BF00F0B4FA0B48006884
S31508000A2078B100BF08480068C06AE16A884207D200
S31508000A304FF0805009490860BFF34F8FBFF36F8F9F
S31508000A4000BF10BD30000020200000203C00002020
S31508000A504C000020380000206080002004ED00E0F3
S31508000A6010B516E000F07CFA0C48C068C468201D72
S31508000A7000F038FA0A480068401E09490860094823
S31508000A800068401E0749086000F07CFA204600F01E
S31508000A9074F8044800680028E4D110BD00810020DD
S31508000AA0300000202C000020F0B587B00126002079
S31508000AB003900490059006900027002408E014A0EF
S31508000AC0005D03A9085503A8005D00B902E0641C8F
S31508000AD00F2CF4D300BF002003A90855002511E008
S31508000AE00D4F0E4800EB850000210B468022CDE90C
S31508000AF0001003A9384600F04FFB0646012E00D029
S31508000B0002E06D1C012DEBDB00BF304607B0F0BDDF
S31508000B1049444C4500000000F90B00085400002029
S31508000B202DE9FF5F0746884616469946DDE90EAB6E
S31508000B30B00000F03FF9054675B1542000F03AF9C7
S31508000B4004462CB154212046FFF7EEFB256304E04A
S31508000B50284600F027FA00E0002454B100204B464E
S31508000B6032464146CDE900ABCDE90240384600F0B1
S31508000B7057F8204604B0BDE8F09F10B50446206B30
S31508000B8000F010FA204600F00DFA10BD30B54FF40B
S31508000B900043144800F007042CB1C01D20F00700DC
S31508000BA0104C041B1B1B104C206000240E4D6C605F
S31508000BB0C218083A22F007020C4C226000240B4D9A
S31508000BC02D686C60094D2D682C600146541A4C60DE
S31508000BD0064C24680C60064D4C682C60054D4C6824
S31508000BE02C6030BD600000200000002008000020B6
S31508000BF0100000200C00002000BFFFF731FF064858
S31508000C0000680128F9D94FF0805004490860BFF3FD
S31508000C104F8FBFF36F8FF0E76080002004ED00E090
S31508000C202DE9FF5F80460E469146DDE90E7A109C57
S31508000C30A9F10100216B01EB800B2BF0070B7EB1AC
S31508000C40002507E0715D04F134004155705D00B977
S31508000C5002E06D1C102DF5D300BF0021432001557D
S31508000C60052F00D30427E7626764201D00F05BF9AF
S31508000C7004F1180000F057F92461C7F10500A061D6
S31508000C80646241465846039A00F016F92060BAF1A4
S31508000C90000F01D0CAF80040BDE8FF9F10B5002438
S31508000CA007E004EB84010F4A02EB810000F02EF9FD
S31508000CB0641C052CF5D30C4800F028F90B4800F005
S31508000CC025F90B4800F022F90A4800F01FF90A48EE
S31508000CD000F01CF9044809490860044808490860F6
S31508000CE010BD000060800020C4800020D88000204D
S31508000CF0EC800020008100201481002024000020C0
S31508000D002800002010B50146164800E00068036870
S31508000D108B42FBD30246436813448B4204D1436893
S31508000D204C682344436001460A464B6813440468EA
S31508000D30A34211D10C4C03682468A34208D04B681F
S31508000D400468646823444B6003681B680B6005E00D
S31508000D50054B1B680B6001E003680B60884200D0F6
S31508000D60016010BD00000020080000200948006846
S31508000D70006808B9012000E0002020B14FF0FF30DC
S31508000D800549086005E003480068C068006802492C
S31508000D9008607047240000205000002000BF502043
S31508000DA080F31188BFF34F8FBFF36F8F00BF00BF6B
S31508000DB0FEE700002DE9F04704464FF00009CA4651
S31508000DC0DCB114F1090F01D9012000E0002098B91F
S31508000DD0083404F0070080B104F00700C0F10808E1
S31508000DE0C8F1FF30A04201D2012000E0002008B976
S31508000DF0444402E0002400E0002400F06DF929488C
S31508000E00006808B9FFF7C2FE012000EBE47000286D
S31508000E1043D0002C41D02448006884423DD8234E54
S31508000E203046056801E02E462D686868A04202D261
S31508000E3028680028F7D11B48006885422DD03068FD
S31508000E4000F10809286830606868001B102807D96F
S31508000E502F196868001B78606C60306838603760E6
S31508000E60114968680968081A0F4908600846006841
S31508000E700F490968884203D20B4800680C49086084
S31508000E80D5F804A0686840F0004068600020286033
S31508000E9008480068401C0749086000F0A9FA484657
S31508000EA0BDE8F087080000200C00002000000020A4
S31508000EB01000002014000020001F4FF0807303600C
S31508000EC0001F21F001030360001F054B036014385F
S31508000ED00260001F6FF002030360203870470000AD
S31508000EE09D0D000801460A69D1E901309860D1E9EB
S31508000EF0010358605068884201D188685060002014
S31508000F0008611068401E10601068704700F10801FB
S31508000F1041604FF0FF31816000F10801C160016155
S31508000F2000210160704700210161704710B5024633
S31508000F300B685C1C0CB9106907E002F1080000E0B8
S31508000F404068446824689C42FAD944684C604C68F6
S31508000F50A160886041600A611468641C146010BD51
S31508000F6000BF502080F31188BFF34F8FBFF36F8FF8
S31508000F7000BF03480068401C01490860704700002C
S31508000F801C00002006480068401E054908600846FF
S31508000F90006820B9002080F3118800BF00BF7047A1
S31508000FA01C00002070B506463546E6B1083D2C46BD
S31508000FB06068C00FB8B12068A8B9606820F0004022
S31508000FC0606000F089F808496068096808440649BD
S31508000FD008602046FFF796FE04480068401C03494F
S31508000FE0086000F005FA70BD0C000020180000200B
S31508000FF000204FF0E0210861886102484861072017
S31508001000086170473F90020008B500F01BF9009090
S3150800101000BF00BF0BE000BF4FF4FA71684600F04E
S31508001020D7F800BF4FF480410148FFF797FAF2E777
S31508001030000C024008B500F005F9009000BF0BE06F
S3150800104000BF4FF47A71684600F0C2F800BF4FF44B
S3150800105000510248FFF782FAF2E70000000C02404E
S3150800106008B500F0EFF8009000BF0BE000BF41F2B2
S315080010708831684600F0ACF800BF4FF4805102484A
S31508001080FFF76CFAF2E70000000C024010B5FFF714
S315080010900BFD0446012C14D100BF502080F31188A3
S315080010A0BFF34F8FBFF36F8F00BF4FF0FF30064976
S315080010B0086001200549086000200549086000F01D
S315080010C047F80448006810BD500000203C00002086
S315080010D0340000205800002002480068401C0149DE
S315080010E0086070475C0000201448006818B10120A9
S315080010F01349086021E000201149086000BF114823
S315080011000068B0FA80F0C0F11F0100BF01EB810250
S315080011100D4B03EB820042685268426000F10802F8
S315080011204368934201D1C26842604268D268074B5D
S315080011301A6000BF00BF1846006870475C000020B0
S315080011404400002038000020608000202000002095
S3150800115010B50E48006840F47F000C490860084640
S31508001160006840F07F400860FFF742FF002008490A
S315080011700860FFF77DF80748006840F040400549D9
S315080011800860FFF761F8002010BD000020ED00E0C0
S315080011901C00002034EF00E02DE9FC5F06460F46F0
S315080011A090469946DDE90CAB4B46424639463046F1
S315080011B0CDE900ABFFF7B4FC054625B12846FFF795
S315080011C0D7FB012401E04FF0FF342046BDE8FC9F21
S315080011D02DE9F047044688464FF00009FFF77CFFE3
S315080011E016480668206800EB08052068B04207D94B
S315080011F02068A8420BD9B54209D94FF0010906E083
S315080012002068A84201D8B54201D94FF001092560E6
S31508001210B9F1000F03D0A81B0021FFF743FB00F02C
S31508001220E7F807463FB94FF0805005490860BFF315
S315080012304F8FBFF36F8F4846BDE8F0873400002014
S3150800124004ED00E0014908687047000034000020FA
S315080012502DE9F04100275B48006800287DD15A48EF
S315080012600068451C5848056095B900BF5748D0F82E
S31508001270008057480068554908605548C0F80080FE
S3150800128054480068401C53490860FFF76FFD00BFCB
S315080012905148006885427DD300BF4C480068006805
S315080012A008B9012000E0002020B14FF0FF304A497C
S315080012B008606EE045480068C068C4686668B5425C
S315080012C002D24548066064E000BF6069D4E90212AC
S315080012D08A60D4E902214A60211D42688A4201D106
S315080012E0E1684160002262610168491E016000BF31
S315080012F0A06AA0B100BFA06AD4E907128A60D4E93F
S3150800130007214A6004F1180142688A4201D1216A1C
S3150800131041600022A2620168491E016000BF00BF49
S3150800132094F82C10012088402C49096808432B4959
S31508001330086000BFE16A01EB8101294A02EB8101DD
S315080013404868A0608268E260211D826851608160F9
S31508001350E16A01EB8101224A00E02BE002EB8102FF
S315080013606261E16A01EB81011D4A52F82110491CAC
S31508001370E26A02EB82021A4B43F8221000BF00BF52
S315080013801849E06A0968C96A884286D9012784E744
S3150800139000E000BF13480068C06A00EB80001049EF
S315080013A051F82000012800D901270F48006800B12C
S315080013B0012704E00D480068401C0C4908603846BF
S315080013C0BDE8F0815C0000203400002024000020E5
S315080013D02800002048000020500000203800002087
S315080013E060800020200000204400002040000020EB
S315080013F02DE9F04100240026FFF7B2FD00275148E9
S315080014000068401E4F4908600846006800287DD1DC
S315080014104D480068002879D063E04C48C068C46825
S3150800142000BFA06AD4E907128A60D4E907214A6096
S3150800143004F1180142688A4201D1216A41600022FA
S31508001440A2620168491E016000BF00BF6069D4E955
S3150800145002128A60D4E902214A60211D42688A4242
S3150800146001D1E1684160002262610168491E01609C
S3150800147000BF00BF94F82C10012088403449096841
S3150800148008433349086000BFE16A01EB8101314A2C
S3150800149002EB81014868A0608268E260211D8268CB
S315080014A051608160E16A01EB81012A4A02EB8102FF
S315080014B06261E16A01EB8101264A52F82110491C52
S315080014C0E26A02EB8202234B43F8221000BF00BFF8
S315080014D02149E06A0968C96A884202D901201F4978
S315080014E008601A48006808B9012000E000200028B2
S315080014F093D00CB1FFF73AFC1948056875B100BFDF
S31508001500FFF7A6FE20B10120144900E015E00860A7
S315080015106D1E002DF4D10020114908600F4800689F
S3150800152058B1012600BF0C48006830070D4908600D
S31508001530BFF34F8FBFF36F8F00BFFFF723FD304612
S31508001540BDE8F0815C00002030000020EC8000201F
S315080015503800002060800020200000204400002081
S315080015604000002004ED00E04FF04070E1EE100A64
S315080015707047000094150008000000206000000075
S31508001580C4010008F415000860000020B0870000B8
S31508001590E001000800000000000000000000000054
S315080015A0000000000000000000000000000000002D
S315080015B0AAAAAAAA00000000000000000000000075
S315080015C0000000000000000000000000000000000D
S315080015D000000000000000000000000000000000FD
S315080015E000000000000000000000000004000000E9
S309080015F000000000E9
S7050800018968
