:020000040800F2
:1000000040880020E9020008610A0008ED070008A6
:100010001D0A0008EF030008A90D000800000000F9
:10002000000000000000000000000000290200089D
:10003000F303000800000000850200085D0C0008C2
:100040000303000803030008030300080303000878
:100050000303000803030008030300080303000868
:100060000303000803030008030300080303000858
:100070000303000803030008030300080303000848
:100080000303000803030008030300080303000838
:100090000303000803030008030300080303000828
:1000A0000303000803030008030300080303000818
:1000B0000303000803030008030300080303000808
:1000C00003030008030300080303000803030008F8
:1000D00003030008030300080303000803030008E8
:1000E00003030008030300080303000803030008D8
:1000F00003030008030300080303000803030008C8
:1001000003030008030300080303000803030008B7
:1001100003030008030300080303000803030008A7
:100120000303000803030008030300080303000897
:100130000303000803030008030300080303000887
:100140000303000803030008030300080303000877
:100150000303000803030008030300080303000867
:100160000303000803030008030300080303000857
:100170000303000803030008030300080303000847
:10018000030300080303000800F002F800F03CF845
:100190000AA090E8000C82448344AAF10107DA45E2
:1001A00001D100F031F8AFF2090EBAE80F0013F0F8
:1001B000010F18BFFB1A43F001031847401D000050
:1001C000601D0000103A24BF78C878C1FAD85207E1
:1001D00024BF30C830C144BF04680C6070470000C1
:1001E0000023002400250026103A28BF78C1FBD840
:1001F000520728BF30C148BF0B6070471FB501F0E0
:100200006BFE1FBD10B510BD00F0BCF81146FFF726
:10021000F5FF00F013FF00F0DAF803B4FFF7F2FF88
:1002200003BC00F0DDF800002C4B19680868B0E84A
:10023000F04F80F30988BFF36F8F4FF0000080F319
:10024000118870470000000008480068006880F3CB
:1002500008884FF0000080F3148862B661B6BFF3DF
:100260004F8FBFF36F8F00DF00BF00BF08ED00E0CE
:10027000DFF80C00016841F470010160704700BFB5
:1002800088ED00E0EFF30980BFF36F8F134B1A681E
:100290001EF0100F08BF20ED108A20E9F04F10600B
:1002A00009B44FF0500080F31188BFF34F8FBFF3B4
:1002B0006F8F01F0D1FB4FF0000080F3118809BC73
:1002C00019680868B0E8F04F1EF0100F08BFB0ECD6
:1002D000108A80F30988BFF36F8F704730000020C9
:1002E000EFF3058070470000094880470948004740
:1002F000FEE7FEE7FEE7FEE7FEE7FEE7FEE7FEE7D6
:10030000FEE7FEE704480549054A064B7047000032
:10031000910C0008890100084082002040880020DC
:1003200040840020408400204FF0000200B51346B6
:1003300094469646203922BFA0E80C50A0E80C5005
:10034000B1F12001BFF4F7AF090728BFA0E80C50B6
:1003500048BF0CC05DF804EB890028BF40F8042BAF
:1003600008BF704748BF20F8022B11F0804F18BF1C
:1003700000F8012B7047704770477047004870477E
:10038000DC8100207546FFF7F9FFAE46050069469F
:10039000534620F00700854618B020B5FFF7B2FF9E
:1003A000BDE820404FF000064FF000074FF0000876
:1003B0004FF0000B21F00701AC46ACE8C009ACE8F7
:1003C000C009ACE8C009ACE8C0098D46704710B55B
:1003D0000446AFF300802046BDE81040FFF71DBF84
:1003E00001491820ABBEFEE726000200704700BF9F
:1003F000FEE770477047000010B50246164B1B68B9
:10040000164C2468181B164B1B68164C2468191BC5
:10041000B0F5004F02DBA0F5803004E010F5004F8E
:1004200001DA00F58030B1F5004F02DBA1F5803133
:1004300004E011F5004F01DA01F58031064B1B682D
:10044000064C2360064B1B68064C23601AB19FEDD7
:10045000060A82ED000A10BD0000002008000020FE
:10046000040000200C0000200000000010B52DED5D
:10047000088BB0EE40AAB0EE609AF0EE419AF0EE32
:10048000618AB0EE428A0446B2EE040A39EE400AAE
:10049000F0EE40AAB2EE040A38EE000AB0EE40BA1E
:1004A000B0EE691AF0EE490AB0EE4A0A00F0DEFD3D
:1004B00084ED000AF0EE681AB0EE691AF0EE490A0F
:1004C000B0EE4A0A00F00AFE84ED010AF0EE681A66
:1004D0009FED111AF0EE690AB0EE4A0A00F0FEFD37
:1004E00084ED020AF0EE481AB0EE681AF0EE690ADE
:1004F000B0EE4A0A00F0F2FD84ED030AB0EE481AAD
:10050000F0EE680AB0EE4A0A00F0CCFD84ED040A71
:10051000BDEC088B10BD00000000000030B52DEDD3
:10052000088B8FB00446F0EE408AB0EE609A94EDEE
:10053000000A20EE280AF0EE40AA94ED010A20EE0F
:10054000090AB0EE40BA94ED060AB0EE402A94EDE6
:10055000050AF0EE401A94ED040AB0EE401A94ED4C
:10056000030AF0EE400A0AA8B0EE6A0AFFF77EFF1F
:1005700094ED0A0AB0EE402A94ED090AF0EE401A12
:1005800094ED080AB0EE401A94ED070AF0EE400A26
:1005900005A8B0EE4B0AFFF769FF9FED370AF0EEB2
:1005A000409A9FED350AB0EE408A94ED0B0A8DED2E
:1005B000000A94ED0C0A8DED010A94ED0D0A8DED03
:1005C000020A94ED0E0A8DED030A94ED0F0A8DEDEB
:1005D000040A00203BE0002136E00AAA02EB800278
:1005E000D2ED000A05AA02EB810292ED001AF4EEA8
:1005F000C10AF1EE10FA05D20AAA02EB8002D2ED8E
:10060000000A04E005AA02EB8102D2ED000AB0EE76
:10061000600AB5EEC00AF1EE10FA14DD00EB8003BB
:10062000164D2B445A5C6B4603EB820393ED001A84
:10063000F0EE690A40EE010AF0EE609A78EE000AE8
:10064000B0EE608A00BF491C0529C6DB401C0528A6
:10065000C1DB9FED09AAB5EEC08AF1EE10FA03DD09
:1006600089EE880AB0EE40AA94ED020A20EE0A0A4A
:100670000FB0BDEC088B30BD00000000E21E00088A
:1006800000B97047B7EE000A80ED000AB7EE000A25
:1006900080ED010AB7EE000A80ED020ABBEE040A03
:1006A00080ED030AB9EE040A80ED040AB1EE040AF3
:1006B00080ED050AB3EE040A80ED060A9FED120AEA
:1006C00080ED070ABAEE040A80ED080AB2EE040AC9
:1006D00080ED090A9FED0D0A80ED0A0A9FED0C0AD4
:1006E00080ED0B0A9FED080A80ED0C0A9FED090AC8
:1006F00080ED0D0A9FED050A80ED0E0A9FED060ABA
:1007000080ED0F0A00BFBCE7000048C2000048426D
:100710000000C8C2000000000000C8421CB5012152
:10072000082000F015FA4FF47040009001208DF879
:10073000040000208DF8060003208DF8050000203D
:100740008DF807006946024800F004F81CBD00005F
:10075000000C0240F0B50A4600210023002400BF2F
:100760003DE0012505FA01F3156805EA03049C4202
:1007700034D105684F000326BE40B54305601579A6
:100780004E00B5400668354305601579012D02D04D
:100790001579022D16D185684F000326BE40B5435A
:1007A000856055794E00B54086683543856045685B
:1007B00001268E40B5434560456896798E40B6B2B5
:1007C00035434560C5684F000326BE40B543C5604C
:1007D000D5794E00B540C6683543C560491C10291F
:1007E000BFD3F0BD42694A404261704700BFFEE797
:1007F0007047000070B52DED048B04460D4620486F
:10080000B0F9000000EE100AB8EEC00ADFED1D0AD4
:1008100080EE201AB0EE418A1B48B0F9000000EECD
:10082000100AB8EEC00ADFED170A80EE201AF0EECB
:10083000418A1648B0F9000000EE100AB8EEC00A6E
:10084000DFED130A80EE201AB0EE419AF0EE680A4E
:10085000B0EE480A00F0BEFADFED0E0A20EE200AE4
:10086000DFED0D0A80EE201AF0EE419A0CB1C4EDD6
:10087000009A0DB185ED009ABDEC048B70BD0000AF
:100880001200002000008046140000201600002006
:100890000000034300003443DB0F49400CB5F0EE89
:1008A000401A90ED040A30EEC00A80ED050A90ED82
:1008B000030A90ED054A01EE040A80ED030A90ED6B
:1008C000070A90ED094A11EE040A90ED084A30EE4D
:1008D000440A90ED004A30EE044A90ED060A01EE1B
:1008E000040A80ED060A90ED070A90ED094A01EE30
:1008F000440A80ED070A90ED080A90ED094A01EEDE
:10090000440A80ED080A90ED090A90ED014A04EED0
:10091000010A80ED090A90ED060A90ED024A30EED8
:10092000040AB0EE402A90ED060A80EE024A8DEDF0
:10093000004A90ED080A80EE024A8DED014A90EDE2
:10094000030A31EEC00AF0EE402A90ED030A9DED55
:10095000004A04EE220A80ED030A90ED040A9DEDA0
:10096000014A04EE220A80ED040A90ED060AB0EE78
:10097000403A90ED070AF0EE403A90ED060A9DED00
:10098000004A04EE430A80ED060A90ED070A9DED49
:10099000004A04EE630A80ED070A90ED080A9DED17
:1009A000014A04EE430A80ED080A90ED090A9DED24
:1009B000014A04EE630A80ED090A90ED030A0CBDBA
:1009C0009FED120A80ED000A9FED110A80ED010AE9
:1009D0009FED100A80ED020A9FED0F0A80ED030AD9
:1009E0009FED0D0A80ED040A9FED0B0A80ED060ACB
:1009F0009FED090A80ED070A9FED070A80ED080ABE
:100A00009FED050A80ED090A704700006F12833AD6
:100A1000A69B443B8FC2F53C0000000000BFFEE7F0
:100A2000704700009FED0C1AB4EEC10AF1EE10FA07
:100A300003DD9FED091AB0EE410A9FED081AB4EEEE
:100A4000C10AF1EE10FA03D29FED041AB0EE410A8A
:100A500000BFF0EEC00A70470000C8420000C8C2E4
:100A60007047000002490143024A116070470000CC
:100A70000000FA050CED00E0F0EE401AB0EE602A3E
:100A800071EEC24AF0EE640AD0ED004A64EEA04A6C
:100A9000F0EE642AD0ED034A40EE814AC0ED034AED
:100AA000D0ED014A90ED035A64EE854AB0EE643A07
:100AB000D0ED044A70EEE44A84EE815AF0EE453AF5
:100AC000D0ED024A64EEA34AB0EE644AC0ED040AD7
:100AD00072EE834A74EE844AB0EE640AD0ED064AA0
:100AE000F4EEC04AF1EE10FA0AD2D0ED064AB0EEAA
:100AF000640AD0ED034A40EEC14AC0ED034A10E05B
:100B0000D0ED054AF4EEC04AF1EE10FA09DDD0ED61
:100B1000054AB0EE640AD0ED034A40EEC14AC0ED8A
:100B2000034A704780ED000AC0ED010A80ED021A09
:100B3000DFED062AC0ED032ADFED042AC0ED042A0A
:100B4000C0ED051A80ED062A704700000000000085
:100B500029B1064A12680243044B1A6004E0034AB2
:100B600012688243014B1A6070470000303802401F
:100B70000CB50020019000903448006840F48030AB
:100B80003249086000BF3148006800F4003000902E
:100B90000198401C0190009818B90198B0F5A04F39
:100BA000F1D12A48006800F4003010B10120009013
:100BB00001E0002000900098012846D123484030F1
:100BC000006840F0805021494031086020480068AA
:100BD00040F440401E4908601C48083000681B492A
:100BE000083108600846006840F400400860084684
:100BF000006840F4A05008601648091F0860081FEC
:100C0000006840F08070091F086000BF0F4800684E
:100C100000F000700028F9D040F205700E4908601D
:100C20000A480830006820F00300084908310860CD
:100C30000846006840F00200086000BF0348083022
:100C4000006800F00C000828F8D10CBD0038024004
:100C50000070004008544007003C024010B500BF3F
:100C6000502080F31188BFF34F8FBFF36F8F00BF09
:100C700000F0A6FF18B14FF080500449086000BF93
:100C8000002080F3118800BF10BD000004ED00E0DB
:100C900010B51548006840F4700013490860134807
:100CA000006840F001001149086000200F49083138
:100CB00008600E4800680E4908400C4908600D485D
:100CC000091D0860081F006820F48020091F0860C3
:100CD000002006490C310860FFF74AFF4FF0006022
:100CE00001498039086010BD88ED00E000380240FD
:100CF000FFFFF6FE103000241CB51848FFF760FE19
:100D00009FED172ADFED171A9FED171AF6EE000A6E
:100D1000B0EE000A1548FFF705FF00200321034647
:100D20004FF48072CDE9001011A1144800F0ECFEE0
:100D30000020022103468022CDE9001010A11448B2
:100D400000F0E2FE0020042103468A01CDE90010F4
:100D500010A1144800F0D8FE1CBD0000D0000020F7
:100D60000000C8420000C8C20AD7233CF800002097
:100D70005461736B5F494D550000000089190008EC
:100D80005461736B5F456E636F64657200000000B1
:100D9000491900085461736B5F436F6E74726F6C16
:100DA00000000000A518000800BFFEE7410008028F
:100DB00018BF04200A0E18BF40F001004FF07F4218
:100DC00032EA010108BF40F00200012808BF0520F7
:100DD0007047000010EE100A10B510EE901A4FF098
:100DE000684202EB40032DED028BB3F1654F3CBF2F
:100DF00002EB4102B2F1654F7CD200BFC0F3C75392
:100E0000C1F3C7529A1A1B2A09DD10F0004F14BF14
:100E10009FED6E0A9FED6E0ABDEC028B10BD12F1C4
:100E20001A0F1BDA11F0004F09D010F0004F0CBF61
:100E30009FED680A9FED680ABDEC028B10BD80EE45
:100E4000208A18EE100AFFF7B1FF042808BF00F04F
:100E5000EDF8B0EE480ABDEC028B10BD4200B2EBDB
:100E6000410F37D910F0004F19BFDFED5C1A9FED2D
:100E70005C1ADFED5C1A9FED5C1AB0EE602A0A4640
:100E8000F1EE400A80F00041B0EE420A10460A1A24
:100E90005200B2F1807F34D2484010F0004FDFEDB5
:100EA000532A9FED533A1DBFBEEE002A71EEE21A9F
:100EB00031EE431AB6EE002A04BF71EEA21A31EEEB
:100EC000031AF0EE402A42EE602A40EE020A82EE59
:100ED000A02A18E011F0004F04BF9FED461AF0EE73
:100EE000411AD4D010F0004F1CBFDFED431A9FED24
:100EF000431A00E026E004BFDFED411A9FED411ADE
:100F0000C5E780EE202A22EE020ADFED3F0ADFED80
:100F10003F2ABDEC028B40EE202ADFED3D0A40EE79
:100F2000220ADFED3C2A40EE202ADFED3B0A40EEAC
:100F3000220A22EE000A00EE201A31EE020A30EEFA
:100F4000210A10BD4FF07F42B2EB400F28BFB2EB39
:100F5000410F05D2BDEC028BBDE8104000F062B835
:100F600040EA01035B0008BF41F0FF410BD0B2EB48
:100F7000400F08BFB2EB410F08D120F0804000EED7
:100F8000100A21F0804100EE901A37E7B2EB400FD3
:100F900012BF5FEA410240F0FF4001F000413FF420
:100FA0002DAF4A0092EA40033FF528AF002AACBFBC
:100FB0009FED1A1A9FED1A1A20EE010A60EE810ABF
:100FC00010EE100A10EE901A18E70000DB0FC9BFF0
:100FD000DB0FC93FDB0F4940DB0F49C00000C9BF31
:100FE00022AAFDB90000C93F22AAFD390060ED3EEA
:100FF000C30ACE3700000000000049C022AA7DBA13
:101000000000494022AA7D3A2DAD65BD8FB8D53D7F
:101010000FB511BE61C84C3EA8AAAABE0000804F01
:101020000000802F30EE200A704700009FED020A7A
:1010300020EE000A70470000000000104FF44070DE
:10104000FFF710FDFFF76AFBFFF7EAFCFFF7D0FBA5
:10105000FFF7D0F90448FFF713FBFFF74DFE00F050
:10106000CDFC00BFFEE7000090000020F0EE401A2B
:10107000F4EEE01AF1EE10FA02D8B7EE000A70476B
:10108000F4EEC11AF1EE10FA02DB9FED050AF6E765
:1010900031EE612A71EE602A82EE220AEFE700004B
:1010A00000000000F0EE401AF4EEE01AF1EE10FA43
:1010B00002D89FED090A7047F4EEC11AF1EE10FA5A
:1010C00002DBB7EE000AF6E731EEE02A71EE602AA5
:1010D00082EE220AEFE7000000000000B0EE402A96
:1010E000B4EEE02AF1EE10FA04D9B4EEE12AF1EE02
:1010F00010FA02DB9FED110A7047B4EE412AF1EEBF
:1011000010FA02D1B7EE000AF6E7B4EEE02AF1EEEB
:1011100010FA0BDDB4EEC12AF1EE10FA06D272EE2F
:10112000602A31EE603A82EE830AE5E771EEC22A68
:1011300031EEC13A82EE830ADEE7000000000000D3
:101140002DE9F04705460E46294807682948D0F89A
:1011500000802948D0F8009028480068001D00F061
:101160000FFB50B92548006890F82C1001208840EA
:1011700023490968814322480160681CE0B9DEB157
:1011800000BF204948681D49096888601B4982687A
:101190000968CA6019490968091D826851601749C0
:1011A0000968091D8160174A144909684A61114696
:1011B0000968491C116018E07C19104800684460F7
:1011C000BC4206D20D480168091D484600F0FCFAF1
:1011D0000BE00A480168091D404600F0F5FA0A488C
:1011E0000068844201D208480460BDE8F08700002E
:1011F000440000203400002038000020300000208F
:1012000048000020C80100206000002010B50446FE
:1012100000F0F4FA32480068401C31490860314857
:10122000006840B92F4804600846006801280DD1C5
:1012300000F082F90AE02C48006838B929480068B3
:10124000C06AE16A884201D82648046027480068DD
:10125000401C2649086000BF94F82C1001208840EB
:101260002349096808432249086000BFE16A01EB8D
:101270008101204A02EB81014868A0608268E26037
:10128000211D826851608160E16A01EB8101194A88
:1012900002EB81026261E16A01EB8101154A52F8B9
:1012A0002110491CE26A02EB8202124B43F8221021
:1012B00000BF00BF00F0B4FA0B48006878B100BF6F
:1012C00008480068C06AE16A884207D24FF080503F
:1012D00009490860BFF34F8FBFF36F8F00BF10BD88
:1012E00040000020300000204C0000205C00002066
:1012F000480000201401002004ED00E010B516E0C5
:1013000000F07CFA0C48C068C468201D00F038FA70
:101310000A480068401E0949086009480068401EE4
:101320000749086000F07CFA204600F074F8044891
:1013300000680028E4D110BDB40100204000002066
:101340003C000020F0B587B00126002003900490F7
:10135000059006900027002408E014A0005D03A972
:10136000085503A8005D00B902E0641C0F2CF4D3FB
:1013700000BF002003A90855002511E00D4F0E48BD
:1013800000EB850000210B468022CDE9001003A967
:10139000384600F0B9FB0646012E00D002E06D1C75
:1013A000012DEBDB00BF304607B0F0BD49444C4592
:1013B0000000000095140008640000202DE9FF5F84
:1013C0000746884616469946DDE90EABB00000F0A8
:1013D0003FF9054675B1542000F03AF904462CB1A6
:1013E00054212046FEF7A0FF256304E0284600F0C4
:1013F00027FA00E0002454B100204B463246414613
:10140000CDE900ABCDE90240384600F057F8204660
:1014100004B0BDE8F09F10B50446206B00F010FA50
:10142000204600F00DFA10BD30B54FF400431448CB
:1014300000F007042CB1C01D20F00700104C041B65
:101440001B1B104C206000240E4D6C60C218083A23
:1014500022F007020C4C226000240B4D2D686C60BA
:10146000094D2D682C600146541A4C60064C2468C6
:101470000C60064D4C682C60054D4C682C6030BDEE
:10148000DC01002070000020780000208000002097
:101490007C00002000BFFFF731FF064800680128EC
:1014A000F9D94FF0805004490860BFF34F8FBFF364
:1014B0006F8FF0E71401002004ED00E02DE9FF5FDD
:1014C00080460E469146DDE90E7A109CA9F1010096
:1014D000216B01EB800B2BF0070B7EB1002507E0A1
:1014E000715D04F134004155705D00B902E06D1C7E
:1014F000102DF5D300BF002143200155052F00D347
:101500000427E7626764201D00F05BF904F118000E
:1015100000F057F92461C7F10500A06164624146FB
:101520005846039A00F016F92060BAF1000F01D076
:10153000CAF80040BDE8FF9F10B5002407E004EBA7
:1015400084010F4A02EB810000F02EF9641C052C87
:10155000F5D30C4800F028F90B4800F025F90B48AA
:1015600000F022F90A4800F01FF90A4800F01CF9BF
:1015700004480949086004480849086010BD000093
:1015800014010020780100208C010020A00100201F
:10159000B4010020C80100203400002038000020E1
:1015A00010B50146164800E0006803688B42FBD383
:1015B0000246436813448B4204D143684C68234479
:1015C000436001460A464B6813440468A34211D1A4
:1015D0000C4C03682468A34208D04B680468646814
:1015E00023444B6003681B680B6005E0054B1B68D8
:1015F0000B6001E003680B60884200D0016010BD01
:10160000700000207800002009480068006808B9D0
:10161000012000E0002020B14FF0FF3005490860B4
:1016200005E003480068C068006802490860704728
:10163000340000206000002000BF502080F311889B
:10164000BFF34F8FBFF36F8F00BF00BFFEE70000F7
:101650002DE9F04704464FF00009CA46DCB114F109
:10166000090F01D9012000E0002098B9083404F0E6
:10167000070080B104F00700C0F10808C8F1FF308E
:10168000A04201D2012000E0002008B9444402E059
:10169000002400E0002400F0D7F92948006808B9C8
:1016A000FFF7C2FE012000EBE470002843D0002CBD
:1016B00041D02448006884423DD8234E3046056816
:1016C00001E02E462D686868A04202D228680028F2
:1016D000F7D11B48006885422DD0306800F1080919
:1016E000286830606868001B102807D92F196868BF
:1016F000001B78606C60306838603760114968683A
:101700000968081A0F490860084600680F49096807
:10171000884203D20B4800680C490860D5F804A041
:10172000686840F000406860002028600848006851
:10173000401C0749086000F013FB4846BDE8F087ED
:10174000780000207C000020700000208000002035
:1017500084000020001F4FF080730360001F21F001
:1017600001030360001F054B036014380260001F73
:101770006FF002030360203870470000391600083C
:1017800001460A69D1E901309860D1E90103586046
:101790005068884201D18868506000200861106854
:1017A000401E10601068704700F1080141604FF062
:1017B000FF31816000F10801C16001610021016019
:1017C000704700210161704710B502460B685C1C30
:1017D0000CB9106907E002F1080000E040684468B5
:1017E00024689C42FAD944684C604C68A1608860C7
:1017F00041600A611468641C146010BD00BF502071
:1018000080F31188BFF34F8FBFF36F8F00BF034882
:101810000068401C01490860704700008C000020EF
:1018200006480068401E054908600846006820B95F
:10183000002080F3118800BF00BF70478C0000209B
:1018400070B506463546E6B1083D2C466068C00FC7
:10185000B8B12068A8B9606820F00040606000F06E
:10186000F3F808496068096808440649086020469A
:10187000FFF796FE04480068401C0349086000F02A
:101880006FFA70BD7C0000208800002000204FF01F
:10189000E0210861886102484861072008617047BB
:1018A0003F9002002DED068B82B000F083F901908D
:1018B00000BF9FED1C0AB0EE40AA31E000BF052139
:1018C00001A800F03DF900BF174890ED000A7AEE3C
:1018D000408A164890ED050AB1EE409AF0EE490AAA
:1018E000B0EE680A1248FEF719FEF0EE409A9FED3E
:1018F000111A1148D0ED000AB0EE690A0F48FFF73F
:10190000BBF8B0EE408AB0EE480AFFF78BF80C48FF
:1019100080ED008A4FF480410A48FEF763FF00BF64
:10192000CCE700000000000024000020D0000020D0
:10193000900000200AD7A33B28000020F8000020D8
:101940002C000020000C02401CB500F033F901907F
:1019500000BF13E000BF0A2101A800F0F1F800BFAA
:101960006846FEF749FD9DED000A054880ED000A36
:101970004FF400510348FEF735FF00BFEAE70000CF
:1019800028000020000C02400EB500F013F9029070
:1019900000BF25E000BF052102A800F0D1F800BF7C
:1019A000694601A8FEF726FF9DED010A0D4880ED6E
:1019B000000A9DED000A0C4880ED000A9FED0B1A0D
:1019C000DDED000A9DED010A0948FEF767FF0948B1
:1019D00080ED000A4FF480510748FEF703FF00BF77
:1019E000D8E700001C000020200000200AD7A33BFD
:1019F000D000002024000020000C024010B5FFF7AA
:101A0000A1FC0446012C14D100BF502080F31188A2
:101A1000BFF34F8FBFF36F8F00BF4FF0FF3006490A
:101A2000086001200549086000200549086000F0B1
:101A300047F80448006810BD600000204C000020FA
:101A4000440000206800002002480068401C014952
:101A5000086070476C0000201448006818B101202D
:101A60001349086021E000201149086000BF1148B7
:101A70000068B0FA80F0C0F11F0100BF01EB8102E5
:101A80000D4B03EB820042685268426000F108028D
:101A90004368934201D1C26842604268D268074BF2
:101AA0001A6000BF00BF1846006870476C00002035
:101AB00054000020480000201401002030000020C5
:101AC00010B50E48006840F47F000C4908600846D5
:101AD000006840F07F400860FFF7D8FE002008490A
:101AE0000860FEF7C5FB0748006840F04040054924
:101AF0000860FEF7A9FB002010BD000020ED00E00B
:101B00008C00002034EF00E02DE9FC5F06460F4614
:101B100090469946DDE90CAB4B4642463946304685
:101B2000CDE900ABFFF74AFC054625B12846FFF793
:101B30006DFB012401E04FF0FF342046BDE8FC9F1F
:101B40002DE9F047044688464FF00009FFF77CFF77
:101B500016480668206800EB08052068B04207D9DF
:101B60002068A8420BD9B54209D94FF0010906E017
:101B70002068A84201D8B54201D94FF0010925607B
:101B8000B9F1000F03D0A81B0021FFF7D9FA00F02C
:101B9000E7F807463FB94FF0805005490860BFF3AA
:101BA0004F8FBFF36F8F4846BDE8F0874400002099
:101BB00004ED00E00149086870470000440000207F
:101BC0002DE9F04100275B48006800287DD15A4884
:101BD0000068451C5848056095B900BF5748D0F8C3
:101BE000008057480068554908605548C0F8008093
:101BF00054480068401C53490860FFF705FD00BFCA
:101C00005148006885427DD300BF4C480068006899
:101C100008B9012000E0002020B14FF0FF304A4910
:101C200008606EE045480068C068C4686668B542F0
:101C300002D24548066064E000BF6069D4E9021240
:101C40008A60D4E902214A60211D42688A4201D19A
:101C5000E1684160002262610168491E016000BFC5
:101C6000A06AA0B100BFA06AD4E907128A60D4E9D3
:101C700007214A6004F1180142688A4201D1216AB1
:101C800041600022A2620168491E016000BF00BFDE
:101C900094F82C10012088402C49096808432B49EE
:101CA000086000BFE16A01EB8101294A02EB810172
:101CB0004868A0608268E260211D8268516081608E
:101CC000E16A01EB8101224A00E02BE002EB810294
:101CD0006261E16A01EB81011D4A52F82110491C41
:101CE000E26A02EB82021A4B43F8221000BF00BFE7
:101CF0001849E06A0968C96A884286D9012784E7D9
:101D000000E000BF13480068C06A00EB8000104983
:101D100051F82000012800D901270F48006800B1C0
:101D2000012704E00D480068401C0C490860384653
:101D3000BDE8F0816C000020440000203400002049
:101D400038000020580000206000002048000020DB
:101D5000140100203000002054000020500000201A
:101D60002DE9F04100240026FFF748FD00275148E7
:101D70000068401E4F4908600846006800287DD171
:101D80004D480068002879D063E04C48C068C468BA
:101D900000BFA06AD4E907128A60D4E907214A602B
:101DA00004F1180142688A4201D1216A416000228F
:101DB000A2620168491E016000BF00BF6069D4E9EA
:101DC00002128A60D4E902214A60211D42688A42D7
:101DD00001D1E1684160002262610168491E016031
:101DE00000BF00BF94F82C100120884034490968D6
:101DF00008433349086000BFE16A01EB8101314AC1
:101E000002EB81014868A0608268E260211D82685F
:101E100051608160E16A01EB81012A4A02EB810293
:101E20006261E16A01EB8101264A52F82110491CE6
:101E3000E26A02EB8202234B43F8221000BF00BF8C
:101E40002149E06A0968C96A884202D901201F490C
:101E500008601A48006808B9012000E00020002846
:101E600093D00CB1FFF7D0FB1948056875B100BFDE
:101E7000FFF7A6FE20B10120144900E015E008603C
:101E80006D1E002DF4D10020114908600F48006834
:101E900058B1012600BF0C48006830070D490860A2
:101EA000BFF34F8FBFF36F8F00BFFFF7B9FC304612
:101EB000BDE8F0816C00002040000020A00100205F
:101EC00048000020140100203000002054000020B1
:101ED0005000002004ED00E04FF04070E1EE100AE9
:101EE000704700000001020000010203000102032C
:101EF0000401020304040203040404001C1F00087C
:101F00000000002090000000C4010008AC1F000881
:101F100090000020B0870000E001000800000000F1
:101F200000000000000000000000000000000000B1
:101F300000000000000000000000000000000000A1
:101F40000000000000000000000000000000000091
:101F50000000000000000000000000000000000081
:101F60000000000000000000000000000000000071
:101F70000000000000000000000000000000000061
:101F8000000000000400000000000000000000004D
:101F90000000000000000000000000000000000041
:0C1FA0000000000000000000AAAAAAAA8D
:040000050800018965
:00000001FF
