:020000040800F2
:1000000068070020E9020008B9070008C1040008D9
:10001000C5040008A3030008BD0B00080000000091
:10002000000000000000000000000000290200089D
:10003000A70300080000000085020008FD08000872
:100040000303000803030008030300080303000878
:100050000303000803030008030300080303000868
:100060000303000803030008030300080303000858
:100070000303000803030008030300080303000848
:100080000303000803030008030300080303000838
:100090000303000803030008030300080303000828
:1000A0000303000803030008030300080303000818
:1000B0000303000803030008030300080303000808
:1000C00003030008030300080303000803030008F8
:1000D00003030008030300080303000803030008E8
:1000E00003030008030300080303000803030008D8
:1000F00003030008030300080303000803030008C8
:1001000003030008030300080303000803030008B7
:1001100003030008030300080303000803030008A7
:100120000303000803030008030300080303000897
:100130000303000803030008030300080303000887
:100140000303000803030008030300080303000877
:100150000303000803030008030300080303000867
:100160000303000803030008030300080303000857
:100170000303000803030008030300080303000847
:10018000030300080303000800F002F800F03CF845
:100190000AA090E8000C82448344AAF10107DA45E2
:1001A00001D100F031F8AFF2090EBAE80F0013F0F8
:1001B000010F18BFFB1A43F001031847640C00003D
:1001C000840C0000103A24BF78C878C1FAD85207CE
:1001D00024BF30C830C144BF04680C6070470000C1
:1001E0000023002400250026103A28BF78C1FBD840
:1001F000520728BF30C148BF0B6070471FB500F0E1
:1002000009FE1FBD10B510BD00F096F81146FFF7AE
:10021000F5FF00F0D5FC00F0B4F803B4FFF7F2FFEF
:1002200003BC00F0B7F800002C4B19680868B0E870
:10023000F04F80F30988BFF36F8F4FF0000080F319
:10024000118870470000000008480068006880F3CB
:1002500008884FF0000080F3148862B661B6BFF3DF
:100260004F8FBFF36F8F00DF00BF00BF08ED00E0CE
:10027000DFF80C00016841F470010160704700BFB5
:1002800088ED00E0EFF30980BFF36F8F134B1A681E
:100290001EF0100F08BF20ED108A20E9F04F10600B
:1002A00009B44FF0500080F31188BFF34F8FBFF3B4
:1002B0006F8F00F0ABFC4FF0000080F3118809BC99
:1002C00019680868B0E8F04F1EF0100F08BFB0ECD6
:1002D000108A80F30988BFF36F8F704700000020F9
:1002E000EFF3058070470000094880470948004740
:1002F000FEE7FEE7FEE7FEE7FEE7FEE7FEE7FEE7D6
:10030000FEE7FEE704480549054A064B7047000032
:1003100031090008890100086801002068070020F1
:100320006803002068030020704770477047000092
:1003300000487047080100207546FFF7F9FFAE46F8
:1003400005006946534620F00700854618B020B5E1
:10035000FFF7D8FFBDE820404FF000064FF0000740
:100360004FF000084FF0000B21F00701AC46ACE85D
:10037000C009ACE8C009ACE8C009ACE8C0098D46CA
:10038000704710B50446AFF300802046BDE810402A
:10039000FFF743BF01491820ABBEFEE7260002006D
:1003A000704700BFFEE770471CB50121082000F030
:1003B0000FFA4FF47040009001208DF804000020E7
:1003C0008DF8060003208DF8050000208DF8070049
:1003D0006946024800F004F81CBD0000000C024011
:1003E000F0B50A4600210023002400BF3DE00125AE
:1003F00005FA01F3156805EA03049C4234D1056847
:100400004F000326BE40B543056015794E00B54048
:100410000668354305601579012D02D01579022D46
:1004200016D185684F000326BE40B54385605579D7
:100430004E00B540866835438560456801268E408C
:10044000B5434560456896798E40B6B23543456000
:10045000C5684F000326BE40B543C560D5794E0040
:10046000B540C6683543C560491C1029BFD3F0BDEF
:10047000F0B5002300244D07ED0E02FA05F3CE106F
:1004800000F1200555F826504E07F70E0F26BE4006
:10049000B543CF1000F1200646F82750CE1000F1EA
:1004A000200555F8265045EA0304CE1000F120053A
:1004B00045F82640F0BD0A048261704781617047AB
:1004C00000BFFEE700BFFEE700B58BB001210520AD
:1004D00000F07EF90121084600F08AF94FF44070DF
:1004E000099002208DF8280003208DF829000020B3
:1004F0008DF82A0001208DF82B0009A94048FFF74C
:100500006FFF0121102000F063F94FF400600990A3
:1005100002208DF8280003208DF8290000208DF896
:100520002A0001208DF82B0009A93648FFF758FF53
:1005300001220B213348FFF79BFF0122082130489D
:10054000FFF796FF012209212D48FFF791FF4FF495
:100550007070099001208DF8280003208DF8290083
:1005600000208DF82A008DF82B0009A92648FFF7F6
:1005700037FF4FF470712448FFF79DFF40F2E730DA
:1005800007900720ADF818000020ADF82000ADF866
:100590001A008DF8220006A91C4800F0CDFA602050
:1005A000ADF804000120ADF806000020ADF8080009
:1005B0000390ADF81000ADF81200ADF81400ADF8DE
:1005C000160001A9114800F00FFA08210F4800F0A9
:1005D00049FA01A90D4800F04FFA08210B4800F034
:1005E0009DFA0121094800F0EFF90121074800F0C8
:1005F000D3F90121054800F0DBF90BB000BD000084
:1006000000000240001002400008024000000140CB
:1006100010B52DED028BB0EE408AB0EE480A00F026
:1006200007F8B0EE480A00F065F8BDEC028B10BD8B
:1006300010B52DED028BB0EE408A9FED290AB4EE85
:10064000C08AF1EE10FA03DD9FED250AB0EE408A74
:100650009FED240AB4EEC08AF1EE10FA03D29FEDAA
:10066000210AB0EE408AB5EEC08AF1EE10FA09DD3B
:100670004FF480711C48FFF721FF40211A48FFF713
:100680001AFF13E0B5EEC08AF1EE10FA09D24FF46A
:1006900080711548FFF70FFF40211348FFF70EFF49
:1006A00004E04FF4A0711048FFF705FFB0EEC80A50
:1006B000DFED0B0A80EE201A9FED0C0A21EE000AF6
:1006C000BCEEC00A10EE100A84B2B4F57A7F01DDE8
:1006D0004FF47A7406484463BDEC028B10BD0000F1
:1006E0000000C8420000C8C20008024000007A446E
:1006F0000000014010B52DED028BB0EE408A9FED59
:10070000290AB4EEC08AF1EE10FA03DD9FED250A46
:10071000B0EE408A9FED240AB4EEC08AF1EE10FAE2
:1007200003D29FED210AB0EE408AB5EEC08AF1EE09
:1007300010FA09DD4FF400711C48FFF7BFFE80215D
:100740001A48FFF7B8FE13E0B5EEC08AF1EE10FAD2
:1007500009D24FF400711548FFF7ADFE8021134810
:10076000FFF7ACFE04E04FF420711048FFF7A3FE42
:10077000B0EEC80ADFED0B0A80EE201A9FED0C0ADE
:1007800021EE000ABCEEC00A10EE100A84B2B4F5E5
:100790007A7F01DD4FF47A7406488463BDEC028BE6
:1007A00010BD00000000C8420000C8C2000802409E
:1007B00000007A44000001407047000002490143F4
:1007C000024A1160704700000000FA050CED00E0DD
:1007D00029B1064A12680243044B1A6004E0034A36
:1007E00012688243014B1A607047000030380240A3
:1007F00029B1064A12680243044B1A6004E0034A16
:1008000012688243014B1A6070470000443802406E
:100810000CB50020019000903448006840F480300E
:100820003249086000BF3148006800F40030009091
:100830000198401C0190009818B90198B0F5A04F9C
:10084000F1D12A48006800F4003010B10120009076
:1008500001E0002000900098012846D12348403054
:10086000006840F08050214940310860204800680D
:1008700040F440401E4908601C48083000681B498D
:10088000083108600846006840F4004008600846E7
:10089000006840F4A05008601648091F0860081F4F
:1008A000006840F08070091F086000BF0F480068B2
:1008B00000F000700028F9D040F205700E49086081
:1008C0000A480830006820F0030008490831086031
:1008D0000846006840F00200086000BF0348083086
:1008E000006800F00C000828F8D10CBD0038024068
:1008F0000070004008544007003C024010B500BFA3
:10090000502080F31188BFF34F8FBFF36F8F00BF6C
:1009100000F0B0F918B14FF080500449086000BFF2
:10092000002080F3118800BF10BD000004ED00E03E
:1009300010B51548006840F470001349086013486A
:10094000006840F001001149086000200F4908319B
:1009500008600E4800680E4908400C4908600D48C0
:10096000091D0860081F006820F48020091F086026
:10097000002006490C310860FFF74AFF4FF0006085
:1009800001498039086010BD88ED00E00038024060
:10099000FFFFF6FE1030002421B1028842F08002F1
:1009A000028004E002884FF67F731A40028070478D
:1009B00021B1028842F00102028004E002884FF671
:1009C000FE731A400280704731B1B0F8442042F4FF
:1009D0000042A0F8442005E0B0F84420C2F30E0223
:1009E000A0F844207047000070B5002400220023C6
:1009F000058C4FF6FE7635400584028C8388048B87
:100A00004FF68F752C40B51E2C400D882C43751E5B
:100A10002A408D892A434D882A43104DA84202D08E
:100A20000F4DA84213D14FF6F7752A40CD892A43BE
:100A30004FF6FB752A408D882A434FF6FF652B4001
:100A40004FF6FF552B400D8A2B434D8A2B43838055
:100A500004838D684563028470BD0000000001407E
:100A6000000401400A460021018B4FF6F77319403C
:100A7000114301837047000070B500240022002359
:100A8000058C4FF6EF7635400584028C8388048B05
:100A900048F6FF752C404FF6FF452C400D884FF669
:100AA000FF7606EA05252C434FF6DF752A408D892F
:100AB00006EA05152A434D8806EA05152A43154D11
:100AC000A84202D0144DA8421DD14FF67F752A408E
:100AD000CD894FF6FF7606EA05152A434FF6BF7516
:100AE0002A408D8806EA05152A434FF6FF352B402C
:100AF0004FF2FF752B400D8A06EA85052B434D8A80
:100B000006EA85052B43838004838D688563028410
:100B100070BD000000000140000401400A460021B1
:100B2000018B4FF2FF7319404FF6FF7303EA022364
:100B3000194301837047000000220288184B984235
:100B40000ED0184B98420BD0B0F1804F08D0164B06
:100B5000984205D0154B984202D0154B984204D1CB
:100B60004FF68F731A404B881A43124B984207D0A6
:100B7000114B984204D04FF6FF431A400B891A4399
:100B800002804B68C3620B880385054B984202D0F4
:100B9000044B984201D18B7A0386012383827047EC
:100BA0000000014000040140000400400008004033
:100BB000000C0040001000400014004000BFFEE7A1
:100BC0004FF44070FFF7FAFDFFF7EEFBFFF77CFCF8
:100BD000B3EE040AFFF71CFD00BFFEE709480068FA
:100BE000006808B9012000E0002020B14FF0FF307C
:100BF0000549086005E003480068C06800680249CC
:100C0000086070470400002030000020144800688D
:100C100018B101201349086021E000201149086043
:100C200000BF11480068B0FA80F0C0F11F0100BF9A
:100C300001EB81020D4B03EB820042685268426077
:100C400000F108024368934201D1C26842604268E1
:100C5000D268074B1A6000BF00BF18460068704793
:100C60003C0000202400002018000020400000204C
:100C7000000000202DE9F04100275B4800680028B3
:100C80007DD15A480068451C5848056095B900BF99
:100C90005748D0F8008057480068554908605548C3
:100CA000C0F8008054480068401C53490860FFF7B2
:100CB00095FF00BF5148006885427DD300BF4C4876
:100CC0000068006808B9012000E0002020B14FF062
:100CD000FF304A4908606EE045480068C068C46853
:100CE0006668B54202D24548066064E000BF6069AC
:100CF000D4E902128A60D4E902214A60211D4268C7
:100D00008A4201D1E1684160002262610168491EA6
:100D1000016000BFA06AA0B100BFA06AD4E90712B9
:100D20008A60D4E907214A6004F1180142688A42C6
:100D300001D1216A41600022A2620168491E01605E
:100D400000BF00BF94F82C10012088402C4909688E
:100D500008432B49086000BFE16A01EB8101294A81
:100D600002EB81014868A0608268E260211D826810
:100D700051608160E16A01EB8101224A00E02BE0D1
:100D800002EB81026261E16A01EB81011D4A52F8C6
:100D90002110491CE26A02EB82021A4B43F822102E
:100DA00000BF00BF1849E06A0968C96A884286D94D
:100DB000012784E700E000BF13480068C06A00EB29
:100DC0008000104951F82000012800D901270F4860
:100DD000006800B1012704E00D480068401C0C4980
:100DE00008603846BDE8F0813C0000201400002077
:100DF000040000200800002028000020300000200F
:100E000018000020400000200000002024000020E6
:100E1000200000204FF04070E1EE100A7047000003
:100E2000400E00080000002040000000C40100083F
:100E3000800E00084000002028070000E0010008A4
:100E400000000000000000000000000000000000A2
:100E50000000000000000000000000000000000092
:100E60000000000000000000000000000000000082
:100E7000000000000000000004000000000000006E
:040000050800018965
:00000001FF
